{
  "contractName": "Voting",
  "abi": [
    {
      "inputs": [
        {
          "internalType": "bytes32[]",
          "name": "candidateNames",
          "type": "bytes32[]"
        }
      ],
      "payable": false,
      "stateMutability": "nonpayable",
      "type": "constructor"
    },
    {
      "constant": true,
      "inputs": [
        {
          "internalType": "uint256",
          "name": "",
          "type": "uint256"
        }
      ],
      "name": "candidateList",
      "outputs": [
        {
          "internalType": "bytes32",
          "name": "",
          "type": "bytes32"
        }
      ],
      "payable": false,
      "stateMutability": "view",
      "type": "function"
    },
    {
      "constant": true,
      "inputs": [
        {
          "internalType": "bytes32",
          "name": "",
          "type": "bytes32"
        }
      ],
      "name": "voteReceiver",
      "outputs": [
        {
          "internalType": "uint256",
          "name": "",
          "type": "uint256"
        }
      ],
      "payable": false,
      "stateMutability": "view",
      "type": "function"
    },
    {
      "constant": true,
      "inputs": [
        {
          "internalType": "bytes32",
          "name": "candidate",
          "type": "bytes32"
        }
      ],
      "name": "votesReceivedPerCandidate",
      "outputs": [
        {
          "internalType": "uint256",
          "name": "",
          "type": "uint256"
        }
      ],
      "payable": false,
      "stateMutability": "view",
      "type": "function"
    },
    {
      "constant": false,
      "inputs": [
        {
          "internalType": "bytes32",
          "name": "candidate",
          "type": "bytes32"
        }
      ],
      "name": "incrementVotePerCandidate",
      "outputs": [],
      "payable": false,
      "stateMutability": "nonpayable",
      "type": "function"
    },
    {
      "constant": true,
      "inputs": [
        {
          "internalType": "bytes32",
          "name": "candidate",
          "type": "bytes32"
        }
      ],
      "name": "realCandidate",
      "outputs": [
        {
          "internalType": "bool",
          "name": "",
          "type": "bool"
        }
      ],
      "payable": false,
      "stateMutability": "view",
      "type": "function"
    }
  ],
  "bytecode": "0x608060405234801561001057600080fd5b506040516104263803806104268339818101604052602081101561003357600080fd5b810190808051604051939291908464010000000082111561005357600080fd5b8382019150602082018581111561006957600080fd5b825186602082028301116401000000008211171561008657600080fd5b8083526020830192505050908051906020019060200280838360005b838110156100bd5780820151818401526020810190506100a2565b5050505090500160405250505080600190805190602001906100e09291906100e7565b5050610159565b828054828255906000526020600020908101928215610123579160200282015b82811115610122578251825591602001919060010190610107565b5b5090506101309190610134565b5090565b61015691905b8082111561015257600081600090555060010161013a565b5090565b90565b6102be806101686000396000f3fe608060405234801561001057600080fd5b50600436106100575760003560e01c8063020209551461005c57806333071ab11461009e5780633c3b3a83146100cc578063b13c744b14610112578063f1709e9214610154575b600080fd5b6100886004803603602081101561007257600080fd5b8101908080359060200190929190505050610196565b6040518082815260200191505060405180910390f35b6100ca600480360360208110156100b457600080fd5b81019080803590602001909291905050506101c4565b005b6100f8600480360360208110156100e257600080fd5b81019080803590602001909291905050506101fa565b604051808215151515815260200191505060405180910390f35b61013e6004803603602081101561012857600080fd5b8101908080359060200190929190505050610250565b6040518082815260200191505060405180910390f35b6101806004803603602081101561016a57600080fd5b8101908080359060200190929190505050610271565b6040518082815260200191505060405180910390f35b60006101a1826101fa565b6101aa57600080fd5b600080838152602001908152602001600020549050919050565b6101cd816101fa565b6101d657600080fd5b60016000808381526020019081526020016000206000828254019250508190555050565b600080600090505b60018054905081101561024557826001828154811061021d57fe5b9060005260206000200154141561023857600191505061024b565b8080600101915050610202565b50600090505b919050565b6001818154811061025d57fe5b906000526020600020016000915090505481565b6000602052806000526040600020600091509050548156fea265627a7a7231582059d2b145fa15cfc7cdd093caf4d3097d8a13d34cb768311566a8677c1e954f2c64736f6c63430005100032",
  "source": "pragma solidity ^0.5.16;\ncontract Voting {\n  mapping (bytes32 => uint256) public voteReceiver;\n\n  bytes32[] public candidateList;\n\n  constructor(bytes32[] memory candidateNames) public {\n    candidateList = candidateNames;\n  }\n\n  function votesReceivedPerCandidate(bytes32 candidate) view public returns (uint256) {\n    require(realCandidate(candidate));\n    return voteReceiver[candidate];\n  }\n\n\n  function incrementVotePerCandidate(bytes32 candidate) public {\n    require(realCandidate(candidate));\n    voteReceiver[candidate] += 1;\n  }\n\n  function realCandidate(bytes32 candidate) view public returns (bool) {\n    for(uint i = 0; i < candidateList.length; i++) {\n      if (candidateList[i] == candidate) {\n        return true;\n      }\n    }\n    return false;\n  }\n}",
  "sourcePath": "/Users/Wesley/Documents/Old desktop/Supinfo/5BLOCTEST/blockchain-2/truffle/contracts/vote.sol",
  "compiler": {
    "name": "solc",
    "version": "0.5.16+commit.9c3226ce.Emscripten.clang"
  },
  "schemaVersion": "3.0.23",
  "updatedAt": "2020-03-30T15:29:16.141Z",
  "devdoc": {
    "methods": {}
  },
  "userdoc": {
    "methods": {}
  }
}