{
  "contractName": "VoteContract",
  "abi": [
    {
      "constant": true,
      "inputs": [
        {
          "name": "",
          "type": "uint256"
        }
      ],
      "name": "candidates",
      "outputs": [
        {
          "name": "id",
          "type": "uint256"
        },
        {
          "name": "name",
          "type": "string"
        },
        {
          "name": "voteNumber",
          "type": "uint256"
        }
      ],
      "payable": false,
      "stateMutability": "view",
      "type": "function"
    },
    {
      "constant": true,
      "inputs": [],
      "name": "incrementVoteForCandidate",
      "outputs": [
        {
          "name": "",
          "type": "uint256"
        }
      ],
      "payable": false,
      "stateMutability": "view",
      "type": "function"
    },
    {
      "constant": true,
      "inputs": [
        {
          "name": "",
          "type": "address"
        }
      ],
      "name": "voters",
      "outputs": [
        {
          "name": "",
          "type": "bool"
        }
      ],
      "payable": false,
      "stateMutability": "view",
      "type": "function"
    },
    {
      "inputs": [],
      "payable": false,
      "stateMutability": "nonpayable",
      "type": "constructor"
    },
    {
      "anonymous": false,
      "inputs": [
        {
          "indexed": true,
          "name": "_candidateId",
          "type": "uint256"
        }
      ],
      "name": "candidateHasVoted",
      "type": "event"
    },
    {
      "constant": false,
      "inputs": [
        {
          "name": "_candidateId",
          "type": "uint256"
        }
      ],
      "name": "voteForCandidate",
      "outputs": [],
      "payable": false,
      "stateMutability": "nonpayable",
      "type": "function"
    }
  ],
  "bytecode": "0x608060405234801561001057600080fd5b5061005e6040805190810160405280600681526020017f4d6163726f6e00000000000000000000000000000000000000000000000000008152506100fd640100000000026401000000009004565b6100ab6040805190810160405280600681526020017f46696c6c6f6e00000000000000000000000000000000000000000000000000008152506100fd640100000000026401000000009004565b6100f86040805190810160405280600681526020017f4c652050656e00000000000000000000000000000000000000000000000000008152506100fd640100000000026401000000009004565b61021f565b6002600081548092919060010191905055506060604051908101604052806002548152602001828152602001600081525060016000600254815260200190815260200160002060008201518160000155602082015181600101908051906020019061016992919061017a565b506040820151816002015590505050565b828054600181600116156101000203166002900490600052602060002090601f016020900481019282601f106101bb57805160ff19168380011785556101e9565b828001600101855582156101e9579182015b828111156101e85782518255916020019190600101906101cd565b5b5090506101f691906101fa565b5090565b61021c91905b80821115610218576000816000905550600101610200565b5090565b90565b6104048061022e6000396000f300608060405260043610610062576000357c0100000000000000000000000000000000000000000000000000000000900463ffffffff1680633477ee2e1461006757806336c8c5ee1461011b578063a331472414610148578063a3ec138d14610173575b600080fd5b34801561007357600080fd5b50610092600480360381019080803590602001909291905050506101ce565b6040518084815260200180602001838152602001828103825284818151815260200191508051906020019080838360005b838110156100de5780820151818401526020810190506100c3565b50505050905090810190601f16801561010b5780820380516001836020036101000a031916815260200191505b5094505050505060405180910390f35b34801561012757600080fd5b5061014660048036038101908080359060200190929190505050610290565b005b34801561015457600080fd5b5061015d6103b2565b6040518082815260200191505060405180910390f35b34801561017f57600080fd5b506101b4600480360381019080803573ffffffffffffffffffffffffffffffffffffffff1690602001909291905050506103b8565b604051808215151515815260200191505060405180910390f35b6001602052806000526040600020600091509050806000015490806001018054600181600116156101000203166002900480601f0160208091040260200160405190810160405280929190818152602001828054600181600116156101000203166002900480156102805780601f1061025557610100808354040283529160200191610280565b820191906000526020600020905b81548152906001019060200180831161026357829003601f168201915b5050505050908060020154905083565b6000803373ffffffffffffffffffffffffffffffffffffffff1673ffffffffffffffffffffffffffffffffffffffff16815260200190815260200160002060009054906101000a900460ff161515156102e857600080fd5b6000811180156102fa57506002548111155b151561030557600080fd5b60016000803373ffffffffffffffffffffffffffffffffffffffff1673ffffffffffffffffffffffffffffffffffffffff16815260200190815260200160002060006101000a81548160ff0219169083151502179055506001600082815260200190815260200160002060020160008154809291906001019190505550807ffa8fa9ce217cb50a148f2d15f44343ed4464a4c089068028d1bbe612f5b0180e60405160405180910390a250565b60025481565b60006020528060005260406000206000915054906101000a900460ff16815600a165627a7a72305820b323c95ccc633d6573ce5ca469640edb696fee5c40448ae26882c77d99069efc0029",
  "source": "pragma solidity 0.4.25;\n\ncontract VoteContract {\n  \n    struct Candidate {\n        uint id;\n        string name;\n        uint voteNumber;\n    }\n\n    // Store accounts that have voted\n    mapping(address => bool) public voters;\n\n    mapping(uint => Candidate) public candidates;\n\n    uint public incrementVoteForCandidate;\n    event candidateHasVoted (\n        uint indexed _candidateId\n    );\n\n    constructor () public {\n        candidateCreator(\"Macron\");\n        candidateCreator(\"Fillon\");\n        candidateCreator(\"Le Pen\");\n    }\n\n    function candidateCreator (string _name) private {\n        incrementVoteForCandidate ++;\n        candidates[incrementVoteForCandidate] = Candidate(incrementVoteForCandidate, _name, 0);\n    }\n\n    function voteForCandidate (uint _candidateId) public {\n        require(!voters[msg.sender]);\n        require(_candidateId > 0 && _candidateId <= incrementVoteForCandidate);\n        voters[msg.sender] = true;\n        candidates[_candidateId].voteNumber ++;\n\n        emit candidateHasVoted(_candidateId);\n    }\n}\n",
  "sourcePath": "/Users/Wesley/Documents/Old desktop/Supinfo/5BLOCTEST/supVote-frontend/contracts/voteContract.sol",
  "compiler": {
    "name": "solc",
    "version": "0.4.25+commit.59dbf8f1.Emscripten.clang"
  },
  "schemaVersion": "3.0.23",
  "updatedAt": "2020-04-04T22:22:58.203Z",
  "networkType": "ethereum",
  "devdoc": {
    "methods": {}
  },
  "userdoc": {
    "methods": {}
  }
}